{
  "contractName": "DeviceRegistry",
  "abi": [
    {
      "anonymous": false,
      "inputs": [
        {
          "indexed": false,
          "internalType": "string",
          "name": "deviceId",
          "type": "string"
        },
        {
          "indexed": false,
          "internalType": "address",
          "name": "owner",
          "type": "address"
        }
      ],
      "name": "DeviceAuthenticated",
      "type": "event"
    },
    {
      "anonymous": false,
      "inputs": [
        {
          "indexed": false,
          "internalType": "string",
          "name": "deviceId",
          "type": "string"
        },
        {
          "indexed": false,
          "internalType": "address",
          "name": "owner",
          "type": "address"
        },
        {
          "indexed": false,
          "internalType": "bytes",
          "name": "publicKey",
          "type": "bytes"
        }
      ],
      "name": "DeviceRegistered",
      "type": "event"
    },
    {
      "constant": true,
      "inputs": [
        {
          "internalType": "string",
          "name": "",
          "type": "string"
        }
      ],
      "name": "devices",
      "outputs": [
        {
          "internalType": "address",
          "name": "owner",
          "type": "address"
        },
        {
          "internalType": "bytes",
          "name": "publicKey",
          "type": "bytes"
        },
        {
          "internalType": "bool",
          "name": "registered",
          "type": "bool"
        }
      ],
      "payable": false,
      "stateMutability": "view",
      "type": "function"
    },
    {
      "constant": false,
      "inputs": [
        {
          "internalType": "string",
          "name": "deviceId",
          "type": "string"
        },
        {
          "internalType": "bytes",
          "name": "publicKey",
          "type": "bytes"
        }
      ],
      "name": "registerDevice",
      "outputs": [],
      "payable": false,
      "stateMutability": "nonpayable",
      "type": "function"
    },
    {
      "constant": false,
      "inputs": [
        {
          "internalType": "string",
          "name": "deviceId",
          "type": "string"
        },
        {
          "internalType": "bytes",
          "name": "challenge",
          "type": "bytes"
        }
      ],
      "name": "authenticateDevice",
      "outputs": [],
      "payable": false,
      "stateMutability": "nonpayable",
      "type": "function"
    }
  ],
  "bytecode": "0x608060405234801561001057600080fd5b506109e5806100206000396000f3fe608060405234801561001057600080fd5b50600436106100415760003560e01c806302ab089e146100465780630e1dec861461011457806322233396146101e2575b600080fd5b6101126004803603604081101561005c57600080fd5b810190808035906020019064010000000081111561007957600080fd5b82018360208201111561008b57600080fd5b803590602001918460018302840111640100000000831117156100ad57600080fd5b9091929391929390803590602001906401000000008111156100ce57600080fd5b8201836020820111156100e057600080fd5b8035906020019184600183028401116401000000008311171561010257600080fd5b9091929391929390505050610354565b005b6101e06004803603604081101561012a57600080fd5b810190808035906020019064010000000081111561014757600080fd5b82018360208201111561015957600080fd5b8035906020019184600183028401116401000000008311171561017b57600080fd5b90919293919293908035906020019064010000000081111561019c57600080fd5b8201836020820111156101ae57600080fd5b803590602001918460018302840111640100000000831117156101d057600080fd5b90919293919293905050506105f6565b005b61029b600480360360208110156101f857600080fd5b810190808035906020019064010000000081111561021557600080fd5b82018360208201111561022757600080fd5b8035906020019184600183028401116401000000008311171561024957600080fd5b91908080601f016020809104026020016040519081016040528093929190818152602001838380828437600081840152601f19601f820116905080830192505050505050509192919290505050610806565b604051808473ffffffffffffffffffffffffffffffffffffffff1673ffffffffffffffffffffffffffffffffffffffff1681526020018060200183151515158152602001828103825284818151815260200191508051906020019080838360005b838110156103175780820151818401526020810190506102fc565b50505050905090810190601f1680156103445780820380516001836020036101000a031916815260200191505b5094505050505060405180910390f35b60008484604051808383808284378083019250505092505050908152602001604051809103902060020160009054906101000a900460ff16156103ff576040517f08c379a00000000000000000000000000000000000000000000000000000000081526004018080602001828103825260198152602001807f44657669636520616c726561647920726567697374657265640000000000000081525060200191505060405180910390fd5b60405180606001604052803373ffffffffffffffffffffffffffffffffffffffff16815260200183838080601f016020809104026020016040519081016040528093929190818152602001838380828437600081840152601f19601f8201169050808301925050505050505081526020016001151581525060008585604051808383808284378083019250505092505050908152602001604051809103902060008201518160000160006101000a81548173ffffffffffffffffffffffffffffffffffffffff021916908373ffffffffffffffffffffffffffffffffffffffff160217905550602082015181600101908051906020019061050192919061090b565b5060408201518160020160006101000a81548160ff0219169083151502179055509050507f8875e0283a2a889e5e0278b5fff60e401e9ee436a4abd017e39575e9fd521d95848433858560405180806020018573ffffffffffffffffffffffffffffffffffffffff1673ffffffffffffffffffffffffffffffffffffffff168152602001806020018381038352888882818152602001925080828437600081840152601f19601f8201169050808301925050508381038252858582818152602001925080828437600081840152601f19601f82011690508083019250505097505050505050505060405180910390a150505050565b83838080601f016020809104026020016040519081016040528093929190818152602001838380828437600081840152601f19601f820116905080830192505050505050503373ffffffffffffffffffffffffffffffffffffffff166000826040518082805190602001908083835b602083106106885780518252602082019150602081019050602083039250610665565b6001836020036101000a038019825116818451168082178552505050505050905001915050908152602001604051809103902060000160009054906101000a900473ffffffffffffffffffffffffffffffffffffffff1673ffffffffffffffffffffffffffffffffffffffff1614610768576040517f08c379a00000000000000000000000000000000000000000000000000000000081526004018080602001828103825260148152602001807f4e6f742074686520646576696365206f776e657200000000000000000000000081525060200191505060405180910390fd5b7fd47b200ad7c74309b5f0ebf47a9ece7a0dbb2b6ef3334d46f549f6c6618642de85853360405180806020018373ffffffffffffffffffffffffffffffffffffffff1673ffffffffffffffffffffffffffffffffffffffff1681526020018281038252858582818152602001925080828437600081840152601f19601f82011690508083019250505094505050505060405180910390a15050505050565b6000818051602081018201805184825260208301602085012081835280955050505050506000915090508060000160009054906101000a900473ffffffffffffffffffffffffffffffffffffffff1690806001018054600181600116156101000203166002900480601f0160208091040260200160405190810160405280929190818152602001828054600181600116156101000203166002900480156108ee5780601f106108c3576101008083540402835291602001916108ee565b820191906000526020600020905b8154815290600101906020018083116108d157829003601f168201915b5050505050908060020160009054906101000a900460ff16905083565b828054600181600116156101000203166002900490600052602060002090601f016020900481019282601f1061094c57805160ff191683800117855561097a565b8280016001018555821561097a579182015b8281111561097957825182559160200191906001019061095e565b5b509050610987919061098b565b5090565b6109ad91905b808211156109a9576000816000905550600101610991565b5090565b9056fea265627a7a723158202dd6f5929012bd5e220075915d54602612d7c3ce32a6842ee5ed1f1ee60524d264736f6c63430005100032",
  "source": "// SPDX-License-Identifier: MIT\r\npragma solidity ^0.5.16;\r\n\r\ncontract DeviceRegistry {\r\n    struct Device {\r\n        address owner;\r\n        bytes publicKey;\r\n        bool registered;\r\n    }\r\n\r\n    mapping(string => Device) public devices;\r\n\r\n    event DeviceRegistered(string deviceId, address owner, bytes publicKey);\r\n    event DeviceAuthenticated(string deviceId, address owner);\r\n\r\n    modifier onlyOwner(string memory deviceId) {\r\n        require(devices[deviceId].owner == msg.sender, \"Not the device owner\");\r\n        _;\r\n    }\r\n\r\n    function registerDevice(string calldata deviceId, bytes calldata publicKey) external {\r\n        require(!devices[deviceId].registered, \"Device already registered\");\r\n\r\n        devices[deviceId] = Device({\r\n            owner: msg.sender,\r\n            publicKey: publicKey,\r\n            registered: true\r\n        });\r\n\r\n        emit DeviceRegistered(deviceId, msg.sender, publicKey);\r\n    }\r\n\r\n    function authenticateDevice(string calldata deviceId, bytes calldata challenge) external onlyOwner(deviceId) {\r\n        // TODO: Implement PUF verification logic here\r\n\r\n        // For simplicity, we'll emit an event indicating successful authentication\r\n        emit DeviceAuthenticated(deviceId, msg.sender);\r\n    }\r\n}\r\n",
  "sourcePath": "C:\\Users\\ASUS\\Desktop\\MY_RP\\contracts\\DeviceRegistry.sol",
  "compiler": {
    "name": "solc",
    "version": "0.5.16+commit.9c3226ce.Emscripten.clang"
  },
  "schemaVersion": "3.4.16",
  "updatedAt": "2023-10-28T18:42:37.520Z",
  "networkType": "ethereum",
  "devdoc": {
    "methods": {}
  },
  "userdoc": {
    "methods": {}
  }
}